{
  "_format": "hh-sol-artifact-1",
  "contractName": "Escrow",
  "sourceName": "contracts/Escrow.sol",
  "abi": [
    {
      "inputs": [
        {
          "internalType": "address",
          "name": "_token",
          "type": "address"
        }
      ],
      "stateMutability": "nonpayable",
      "type": "constructor"
    },
    {
      "anonymous": false,
      "inputs": [
        {
          "indexed": true,
          "internalType": "address",
          "name": "user",
          "type": "address"
        },
        {
          "indexed": false,
          "internalType": "uint256",
          "name": "amount",
          "type": "uint256"
        }
      ],
      "name": "Deposited",
      "type": "event"
    },
    {
      "anonymous": false,
      "inputs": [
        {
          "indexed": true,
          "internalType": "address",
          "name": "to",
          "type": "address"
        },
        {
          "indexed": false,
          "internalType": "uint256",
          "name": "amount",
          "type": "uint256"
        }
      ],
      "name": "Withdrawn",
      "type": "event"
    },
    {
      "inputs": [],
      "name": "admin",
      "outputs": [
        {
          "internalType": "address",
          "name": "",
          "type": "address"
        }
      ],
      "stateMutability": "view",
      "type": "function"
    },
    {
      "inputs": [
        {
          "internalType": "uint256",
          "name": "amount",
          "type": "uint256"
        }
      ],
      "name": "deposit",
      "outputs": [],
      "stateMutability": "nonpayable",
      "type": "function"
    },
    {
      "inputs": [
        {
          "internalType": "bytes32",
          "name": "",
          "type": "bytes32"
        }
      ],
      "name": "executed",
      "outputs": [
        {
          "internalType": "bool",
          "name": "",
          "type": "bool"
        }
      ],
      "stateMutability": "view",
      "type": "function"
    },
    {
      "inputs": [
        {
          "internalType": "address",
          "name": "to",
          "type": "address"
        },
        {
          "internalType": "uint256",
          "name": "amount",
          "type": "uint256"
        },
        {
          "internalType": "uint256",
          "name": "nonce",
          "type": "uint256"
        }
      ],
      "name": "getMessageHash",
      "outputs": [
        {
          "internalType": "bytes32",
          "name": "",
          "type": "bytes32"
        }
      ],
      "stateMutability": "pure",
      "type": "function"
    },
    {
      "inputs": [
        {
          "internalType": "bytes32",
          "name": "messageHash",
          "type": "bytes32"
        },
        {
          "internalType": "bytes",
          "name": "signature",
          "type": "bytes"
        }
      ],
      "name": "recoverSigner",
      "outputs": [
        {
          "internalType": "address",
          "name": "",
          "type": "address"
        }
      ],
      "stateMutability": "pure",
      "type": "function"
    },
    {
      "inputs": [],
      "name": "token",
      "outputs": [
        {
          "internalType": "contract IERC20",
          "name": "",
          "type": "address"
        }
      ],
      "stateMutability": "view",
      "type": "function"
    },
    {
      "inputs": [
        {
          "internalType": "address",
          "name": "to",
          "type": "address"
        },
        {
          "internalType": "uint256",
          "name": "amount",
          "type": "uint256"
        },
        {
          "internalType": "uint256",
          "name": "nonce",
          "type": "uint256"
        },
        {
          "internalType": "bytes",
          "name": "signature",
          "type": "bytes"
        }
      ],
      "name": "withdraw",
      "outputs": [],
      "stateMutability": "nonpayable",
      "type": "function"
    }
  ],
  "bytecode": "0x608060405234801561001057600080fd5b5060405161129c38038061129c8339818101604052810190610032919061011c565b806000806101000a81548173ffffffffffffffffffffffffffffffffffffffff021916908373ffffffffffffffffffffffffffffffffffffffff16021790555033600160006101000a81548173ffffffffffffffffffffffffffffffffffffffff021916908373ffffffffffffffffffffffffffffffffffffffff16021790555050610149565b600080fd5b600073ffffffffffffffffffffffffffffffffffffffff82169050919050565b60006100e9826100be565b9050919050565b6100f9816100de565b811461010457600080fd5b50565b600081519050610116816100f0565b92915050565b600060208284031215610132576101316100b9565b5b600061014084828501610107565b91505092915050565b611144806101586000396000f3fe608060405234801561001057600080fd5b506004361061007d5760003560e01c8063b6b55f251161005b578063b6b55f25146100fe578063d2b0737b1461011a578063f851a4401461014a578063fc0c546a146101685761007d565b80630bd0ca9a1461008257806397aba7f91461009e578063a9fcfb33146100ce575b600080fd5b61009c6004803603810190610097919061084d565b610186565b005b6100b860048036038101906100b39190610a4c565b610468565b6040516100c59190610ab7565b60405180910390f35b6100e860048036038101906100e39190610ad2565b610503565b6040516100f59190610b1a565b60405180910390f35b61011860048036038101906101139190610b35565b610523565b005b610134600480360381019061012f9190610b62565b610658565b6040516101419190610bc4565b60405180910390f35b61015261068e565b60405161015f9190610ab7565b60405180910390f35b6101706106b4565b60405161017d9190610c3e565b60405180910390f35b600160009054906101000a900473ffffffffffffffffffffffffffffffffffffffff1673ffffffffffffffffffffffffffffffffffffffff163373ffffffffffffffffffffffffffffffffffffffff1614610216576040517f08c379a000000000000000000000000000000000000000000000000000000000815260040161020d90610cb6565b60405180910390fd5b6000610223868686610658565b90506002600082815260200190815260200160002060009054906101000a900460ff1615610286576040517f08c379a000000000000000000000000000000000000000000000000000000000815260040161027d90610d22565b60405180910390fd5b60006102d68285858080601f016020809104026020016040519081016040528093929190818152602001838380828437600081840152601f19601f82011690508083019250505050505050610468565b90508673ffffffffffffffffffffffffffffffffffffffff168173ffffffffffffffffffffffffffffffffffffffff1614610346576040517f08c379a000000000000000000000000000000000000000000000000000000000815260040161033d90610d8e565b60405180910390fd5b60016002600084815260200190815260200160002060006101000a81548160ff02191690831515021790555060008054906101000a900473ffffffffffffffffffffffffffffffffffffffff1673ffffffffffffffffffffffffffffffffffffffff1663a9059cbb88886040518363ffffffff1660e01b81526004016103cd929190610dbd565b6020604051808303816000875af11580156103ec573d6000803e3d6000fd5b505050506040513d601f19601f820116820180604052508101906104109190610e12565b508673ffffffffffffffffffffffffffffffffffffffff167f7084f5476618d8e60b11ef0d7d3f06914655adb8793e28ff7f018d4c76d505d5876040516104579190610e3f565b60405180910390a250505050505050565b6000808360405160200161047c9190610ed2565b60405160208183030381529060405280519060200120905060008060006104a2866106d8565b925092509250600184828585604051600081526020016040526040516104cb9493929190610f14565b6020604051602081039080840390855afa1580156104ed573d6000803e3d6000fd5b5050506020604051035194505050505092915050565b60026020528060005260406000206000915054906101000a900460ff1681565b60008111610566576040517f08c379a000000000000000000000000000000000000000000000000000000000815260040161055d90610fa5565b60405180910390fd5b60008054906101000a900473ffffffffffffffffffffffffffffffffffffffff1673ffffffffffffffffffffffffffffffffffffffff166323b872dd3330846040518463ffffffff1660e01b81526004016105c393929190610fc5565b6020604051808303816000875af11580156105e2573d6000803e3d6000fd5b505050506040513d601f19601f820116820180604052508101906106069190610e12565b503373ffffffffffffffffffffffffffffffffffffffff167f2da466a7b24304f47e87fa2e1e5a81b9831ce54fec19055ce277ca2f39ba42c48260405161064d9190610e3f565b60405180910390a250565b600083838360405160200161066f93929190611065565b6040516020818303038152906040528051906020012090509392505050565b600160009054906101000a900473ffffffffffffffffffffffffffffffffffffffff1681565b60008054906101000a900473ffffffffffffffffffffffffffffffffffffffff1681565b60008060006041845114610721576040517f08c379a0000000000000000000000000000000000000000000000000000000008152600401610718906110ee565b60405180910390fd5b6020840151925060408401519150606084015160001a90509193909250565b6000604051905090565b600080fd5b600080fd5b600073ffffffffffffffffffffffffffffffffffffffff82169050919050565b600061077f82610754565b9050919050565b61078f81610774565b811461079a57600080fd5b50565b6000813590506107ac81610786565b92915050565b6000819050919050565b6107c5816107b2565b81146107d057600080fd5b50565b6000813590506107e2816107bc565b92915050565b600080fd5b600080fd5b600080fd5b60008083601f84011261080d5761080c6107e8565b5b8235905067ffffffffffffffff81111561082a576108296107ed565b5b602083019150836001820283011115610846576108456107f2565b5b9250929050565b6000806000806000608086880312156108695761086861074a565b5b60006108778882890161079d565b9550506020610888888289016107d3565b9450506040610899888289016107d3565b935050606086013567ffffffffffffffff8111156108ba576108b961074f565b5b6108c6888289016107f7565b92509250509295509295909350565b6000819050919050565b6108e8816108d5565b81146108f357600080fd5b50565b600081359050610905816108df565b92915050565b600080fd5b6000601f19601f8301169050919050565b7f4e487b7100000000000000000000000000000000000000000000000000000000600052604160045260246000fd5b61095982610910565b810181811067ffffffffffffffff8211171561097857610977610921565b5b80604052505050565b600061098b610740565b90506109978282610950565b919050565b600067ffffffffffffffff8211156109b7576109b6610921565b5b6109c082610910565b9050602081019050919050565b82818337600083830152505050565b60006109ef6109ea8461099c565b610981565b905082815260208101848484011115610a0b57610a0a61090b565b5b610a168482856109cd565b509392505050565b600082601f830112610a3357610a326107e8565b5b8135610a438482602086016109dc565b91505092915050565b60008060408385031215610a6357610a6261074a565b5b6000610a71858286016108f6565b925050602083013567ffffffffffffffff811115610a9257610a9161074f565b5b610a9e85828601610a1e565b9150509250929050565b610ab181610774565b82525050565b6000602082019050610acc6000830184610aa8565b92915050565b600060208284031215610ae857610ae761074a565b5b6000610af6848285016108f6565b91505092915050565b60008115159050919050565b610b1481610aff565b82525050565b6000602082019050610b2f6000830184610b0b565b92915050565b600060208284031215610b4b57610b4a61074a565b5b6000610b59848285016107d3565b91505092915050565b600080600060608486031215610b7b57610b7a61074a565b5b6000610b898682870161079d565b9350506020610b9a868287016107d3565b9250506040610bab868287016107d3565b9150509250925092565b610bbe816108d5565b82525050565b6000602082019050610bd96000830184610bb5565b92915050565b6000819050919050565b6000610c04610bff610bfa84610754565b610bdf565b610754565b9050919050565b6000610c1682610be9565b9050919050565b6000610c2882610c0b565b9050919050565b610c3881610c1d565b82525050565b6000602082019050610c536000830184610c2f565b92915050565b600082825260208201905092915050565b7f4f6e6c792061646d696e00000000000000000000000000000000000000000000600082015250565b6000610ca0600a83610c59565b9150610cab82610c6a565b602082019050919050565b60006020820190508181036000830152610ccf81610c93565b9050919050565b7f416c726561647920657865637574656400000000000000000000000000000000600082015250565b6000610d0c601083610c59565b9150610d1782610cd6565b602082019050919050565b60006020820190508181036000830152610d3b81610cff565b9050919050565b7f496e76616c6964207369676e6572000000000000000000000000000000000000600082015250565b6000610d78600e83610c59565b9150610d8382610d42565b602082019050919050565b60006020820190508181036000830152610da781610d6b565b9050919050565b610db7816107b2565b82525050565b6000604082019050610dd26000830185610aa8565b610ddf6020830184610dae565b9392505050565b610def81610aff565b8114610dfa57600080fd5b50565b600081519050610e0c81610de6565b92915050565b600060208284031215610e2857610e2761074a565b5b6000610e3684828501610dfd565b91505092915050565b6000602082019050610e546000830184610dae565b92915050565b600081905092915050565b7f19457468657265756d205369676e6564204d6573736167653a0a333200000000600082015250565b6000610e9b601c83610e5a565b9150610ea682610e65565b601c82019050919050565b6000819050919050565b610ecc610ec7826108d5565b610eb1565b82525050565b6000610edd82610e8e565b9150610ee98284610ebb565b60208201915081905092915050565b600060ff82169050919050565b610f0e81610ef8565b82525050565b6000608082019050610f296000830187610bb5565b610f366020830186610f05565b610f436040830185610bb5565b610f506060830184610bb5565b95945050505050565b7f416d6f756e74203e203000000000000000000000000000000000000000000000600082015250565b6000610f8f600a83610c59565b9150610f9a82610f59565b602082019050919050565b60006020820190508181036000830152610fbe81610f82565b9050919050565b6000606082019050610fda6000830186610aa8565b610fe76020830185610aa8565b610ff46040830184610dae565b949350505050565b60008160601b9050919050565b600061101482610ffc565b9050919050565b600061102682611009565b9050919050565b61103e61103982610774565b61101b565b82525050565b6000819050919050565b61105f61105a826107b2565b611044565b82525050565b6000611071828661102d565b601482019150611081828561104e565b602082019150611091828461104e565b602082019150819050949350505050565b7f496e76616c696420736967206c656e6774680000000000000000000000000000600082015250565b60006110d8601283610c59565b91506110e3826110a2565b602082019050919050565b60006020820190508181036000830152611107816110cb565b905091905056fea2646970667358221220959232f1efe510d9b1e86e7637e886fe6a6c0ba2d068dbbbf1e420994bde168764736f6c634300081c0033",
  "linkReferences": {},
  "deployedLinkReferences": {}
}